{
  "_format": "hh-sol-artifact-1",
  "contractName": "Marketplace",
  "sourceName": "src/contract/contracts/Marketplace.sol",
  "abi": [
    {
      "inputs": [
        {
          "internalType": "uint256",
          "name": "_feePercent",
          "type": "uint256"
        }
      ],
      "stateMutability": "nonpayable",
      "type": "constructor"
    },
    {
      "anonymous": false,
      "inputs": [
        {
          "indexed": true,
          "internalType": "uint256",
          "name": "itemId",
          "type": "uint256"
        },
        {
          "indexed": false,
          "internalType": "address",
          "name": "nft",
          "type": "address"
        },
        {
          "indexed": false,
          "internalType": "uint256",
          "name": "tokenId",
          "type": "uint256"
        },
        {
          "indexed": false,
          "internalType": "uint256",
          "name": "price",
          "type": "uint256"
        },
        {
          "indexed": true,
          "internalType": "address",
          "name": "seller",
          "type": "address"
        },
        {
          "indexed": true,
          "internalType": "address",
          "name": "buyer",
          "type": "address"
        }
      ],
      "name": "BuyItem",
      "type": "event"
    },
    {
      "anonymous": false,
      "inputs": [
        {
          "indexed": true,
          "internalType": "uint256",
          "name": "itemId",
          "type": "uint256"
        },
        {
          "indexed": true,
          "internalType": "address",
          "name": "nft",
          "type": "address"
        },
        {
          "indexed": false,
          "internalType": "uint256",
          "name": "tokenId",
          "type": "uint256"
        },
        {
          "indexed": true,
          "internalType": "address",
          "name": "owner",
          "type": "address"
        }
      ],
      "name": "CancelItem",
      "type": "event"
    },
    {
      "anonymous": false,
      "inputs": [
        {
          "indexed": false,
          "internalType": "address",
          "name": "nft",
          "type": "address"
        },
        {
          "indexed": true,
          "internalType": "address",
          "name": "from",
          "type": "address"
        },
        {
          "indexed": true,
          "internalType": "address",
          "name": "to",
          "type": "address"
        },
        {
          "indexed": true,
          "internalType": "uint256",
          "name": "tokenId",
          "type": "uint256"
        }
      ],
      "name": "GiftNFT",
      "type": "event"
    },
    {
      "anonymous": false,
      "inputs": [
        {
          "indexed": true,
          "internalType": "uint256",
          "name": "itemId",
          "type": "uint256"
        },
        {
          "indexed": true,
          "internalType": "address",
          "name": "nft",
          "type": "address"
        },
        {
          "indexed": false,
          "internalType": "uint256",
          "name": "tokenId",
          "type": "uint256"
        },
        {
          "indexed": false,
          "internalType": "uint256",
          "name": "price",
          "type": "uint256"
        },
        {
          "indexed": true,
          "internalType": "address",
          "name": "seller",
          "type": "address"
        }
      ],
      "name": "MakeItem",
      "type": "event"
    },
    {
      "inputs": [
        {
          "internalType": "uint256",
          "name": "itemId",
          "type": "uint256"
        }
      ],
      "name": "cancelItem",
      "outputs": [],
      "stateMutability": "nonpayable",
      "type": "function"
    },
    {
      "inputs": [],
      "name": "feeAccount",
      "outputs": [
        {
          "internalType": "address payable",
          "name": "",
          "type": "address"
        }
      ],
      "stateMutability": "view",
      "type": "function"
    },
    {
      "inputs": [],
      "name": "feePercent",
      "outputs": [
        {
          "internalType": "uint256",
          "name": "",
          "type": "uint256"
        }
      ],
      "stateMutability": "view",
      "type": "function"
    },
    {
      "inputs": [
        {
          "internalType": "address",
          "name": "owner",
          "type": "address"
        }
      ],
      "name": "getAllNFTOwned",
      "outputs": [
        {
          "internalType": "uint256[]",
          "name": "",
          "type": "uint256[]"
        }
      ],
      "stateMutability": "view",
      "type": "function"
    },
    {
      "inputs": [
        {
          "internalType": "uint256",
          "name": "_itemId",
          "type": "uint256"
        }
      ],
      "name": "getTotalPrice",
      "outputs": [
        {
          "internalType": "uint256",
          "name": "",
          "type": "uint256"
        }
      ],
      "stateMutability": "view",
      "type": "function"
    },
    {
      "inputs": [
        {
          "internalType": "address",
          "name": "nft",
          "type": "address"
        },
        {
          "internalType": "address",
          "name": "to",
          "type": "address"
        },
        {
          "internalType": "uint256",
          "name": "tokenId",
          "type": "uint256"
        }
      ],
      "name": "giftNFT",
      "outputs": [],
      "stateMutability": "nonpayable",
      "type": "function"
    },
    {
      "inputs": [],
      "name": "itemCount",
      "outputs": [
        {
          "internalType": "uint256",
          "name": "",
          "type": "uint256"
        }
      ],
      "stateMutability": "view",
      "type": "function"
    },
    {
      "inputs": [
        {
          "internalType": "uint256",
          "name": "",
          "type": "uint256"
        }
      ],
      "name": "itemIdToItem",
      "outputs": [
        {
          "internalType": "uint256",
          "name": "itemId",
          "type": "uint256"
        },
        {
          "internalType": "contract IERC721",
          "name": "nft",
          "type": "address"
        },
        {
          "internalType": "uint256",
          "name": "tokenId",
          "type": "uint256"
        },
        {
          "internalType": "uint256",
          "name": "price",
          "type": "uint256"
        },
        {
          "internalType": "address payable",
          "name": "seller",
          "type": "address"
        },
        {
          "internalType": "bool",
          "name": "onSale",
          "type": "bool"
        }
      ],
      "stateMutability": "view",
      "type": "function"
    },
    {
      "inputs": [
        {
          "internalType": "contract IERC721",
          "name": "_nft",
          "type": "address"
        },
        {
          "internalType": "uint256",
          "name": "_tokenId",
          "type": "uint256"
        },
        {
          "internalType": "uint256",
          "name": "_price",
          "type": "uint256"
        }
      ],
      "name": "makeItem",
      "outputs": [],
      "stateMutability": "nonpayable",
      "type": "function"
    },
    {
      "inputs": [
        {
          "internalType": "uint256",
          "name": "_itemId",
          "type": "uint256"
        }
      ],
      "name": "purchaseItem",
      "outputs": [],
      "stateMutability": "payable",
      "type": "function"
    },
    {
      "inputs": [
        {
          "internalType": "uint256",
          "name": "",
          "type": "uint256"
        }
      ],
      "name": "tokenIdToItemId",
      "outputs": [
        {
          "internalType": "uint256",
          "name": "",
          "type": "uint256"
        }
      ],
      "stateMutability": "view",
      "type": "function"
    }
  ],
  "bytecode": "0x60c06040523480156200001157600080fd5b5060405162001d3038038062001d3083398181016040528101906200003791906200009c565b60016000819055503373ffffffffffffffffffffffffffffffffffffffff1660808173ffffffffffffffffffffffffffffffffffffffff1660601b815250508060a0818152505050620000ec565b6000815190506200009681620000d2565b92915050565b600060208284031215620000af57600080fd5b6000620000bf8482850162000085565b91505092915050565b6000819050919050565b620000dd81620000c8565b8114620000e957600080fd5b50565b60805160601c60a051611c066200012a6000396000818161058701528181610689015261083a01526000818161055d01526109240152611c066000f3fe60806040526004361061009c5760003560e01c8063b85c3d6611610064578063b85c3d6614610188578063ca7dd375146101b1578063d38ea5bf146101ee578063d3dd52531461020a578063d495e2201461024c578063fa00afc7146102895761009c565b806337f4be6b146100a157806351563f8e146100de57806365e17c9d146101075780636bfb0d01146101325780637fd6f15c1461015d575b600080fd5b3480156100ad57600080fd5b506100c860048036038101906100c39190611409565b6102b2565b6040516100d5919061175a565b60405180910390f35b3480156100ea57600080fd5b5061010560048036038101906101009190611409565b6102ca565b005b34801561011357600080fd5b5061011c61055b565b60405161012991906115ef565b60405180910390f35b34801561013e57600080fd5b5061014761057f565b604051610154919061175a565b60405180910390f35b34801561016957600080fd5b50610172610585565b60405161017f919061175a565b60405180910390f35b34801561019457600080fd5b506101af60048036038101906101aa919061136b565b6105a9565b005b3480156101bd57600080fd5b506101d860048036038101906101d39190611409565b610683565b6040516101e5919061175a565b60405180910390f35b61020860048036038101906102039190611409565b6106e6565b005b34801561021657600080fd5b50610231600480360381019061022c9190611409565b610ae8565b60405161024396959493929190611775565b60405180910390f35b34801561025857600080fd5b50610273600480360381019061026e9190611342565b610b71565b6040516102809190611678565b60405180910390f35b34801561029557600080fd5b506102b060048036038101906102ab91906113ba565b610dd7565b005b60036020528060005260406000206000915090505481565b6000600260008381526020019081526020016000206040518060c0016040529081600082015481526020016001820160009054906101000a900473ffffffffffffffffffffffffffffffffffffffff1673ffffffffffffffffffffffffffffffffffffffff1673ffffffffffffffffffffffffffffffffffffffff16815260200160028201548152602001600382015481526020016004820160009054906101000a900473ffffffffffffffffffffffffffffffffffffffff1673ffffffffffffffffffffffffffffffffffffffff1673ffffffffffffffffffffffffffffffffffffffff1681526020016004820160149054906101000a900460ff1615151515815250509050806080015173ffffffffffffffffffffffffffffffffffffffff163373ffffffffffffffffffffffffffffffffffffffff1614610443576040517f08c379a000000000000000000000000000000000000000000000000000000000815260040161043a9061171a565b60405180910390fd5b60006002600084815260200190815260200160002060040160146101000a81548160ff021916908315150217905550806020015173ffffffffffffffffffffffffffffffffffffffff166323b872dd303384604001516040518463ffffffff1660e01b81526004016104b79392919061160a565b600060405180830381600087803b1580156104d157600080fd5b505af11580156104e5573d6000803e3d6000fd5b505050503373ffffffffffffffffffffffffffffffffffffffff16816020015173ffffffffffffffffffffffffffffffffffffffff16837f1d44fa34d041f56afc95cb3e04f3accb840b59592693aa17bcb400ca668bfefa846040015160405161054f919061175a565b60405180910390a45050565b7f000000000000000000000000000000000000000000000000000000000000000081565b60015481565b7f000000000000000000000000000000000000000000000000000000000000000081565b8273ffffffffffffffffffffffffffffffffffffffff166323b872dd3384846040518463ffffffff1660e01b81526004016105e69392919061160a565b600060405180830381600087803b15801561060057600080fd5b505af1158015610614573d6000803e3d6000fd5b50505050808273ffffffffffffffffffffffffffffffffffffffff163373ffffffffffffffffffffffffffffffffffffffff167fecf926213846e608102dc94bdbb335b3211d72c70f75c8e254c6ec69671b20418660405161067691906115d4565b60405180910390a4505050565b600060647f000000000000000000000000000000000000000000000000000000000000000060646106b49190611849565b60026000858152602001908152602001600020600301546106d591906118d0565b6106df919061189f565b9050919050565b6002600054141561072c576040517f08c379a00000000000000000000000000000000000000000000000000000000081526004016107239061173a565b60405180910390fd5b6002600081905550600060026000838152602001908152602001600020905060008211801561075d57506001548211155b61079c576040517f08c379a0000000000000000000000000000000000000000000000000000000008152600401610793906116fa565b60405180910390fd5b80600301543410156107e3576040517f08c379a00000000000000000000000000000000000000000000000000000000081526004016107da906116da565b60405180910390fd5b8060040160149054906101000a900460ff16610834576040517f08c379a000000000000000000000000000000000000000000000000000000000815260040161082b9061169a565b60405180910390fd5b600060647f0000000000000000000000000000000000000000000000000000000000000000836003015461086891906118d0565b610872919061189f565b90506000818360030154610886919061192a565b905060006002600086815260200190815260200160002060040160146101000a81548160ff0219169083151502179055508260040160009054906101000a900473ffffffffffffffffffffffffffffffffffffffff1673ffffffffffffffffffffffffffffffffffffffff166108fc829081150290604051600060405180830381858888f19350505050158015610921573d6000803e3d6000fd5b507f000000000000000000000000000000000000000000000000000000000000000073ffffffffffffffffffffffffffffffffffffffff166108fc839081150290604051600060405180830381858888f19350505050158015610988573d6000803e3d6000fd5b508260010160009054906101000a900473ffffffffffffffffffffffffffffffffffffffff1673ffffffffffffffffffffffffffffffffffffffff166323b872dd303386600201546040518463ffffffff1660e01b81526004016109ee9392919061160a565b600060405180830381600087803b158015610a0857600080fd5b505af1158015610a1c573d6000803e3d6000fd5b505050503373ffffffffffffffffffffffffffffffffffffffff168360040160009054906101000a900473ffffffffffffffffffffffffffffffffffffffff1673ffffffffffffffffffffffffffffffffffffffff16857f0d008384de33668d0d2ac3862b42f7882efb541e2821d3d0c2e5e641328657578660010160009054906101000a900473ffffffffffffffffffffffffffffffffffffffff1687600201548860030154604051610ad293929190611641565b60405180910390a4505050600160008190555050565b60026020528060005260406000206000915090508060000154908060010160009054906101000a900473ffffffffffffffffffffffffffffffffffffffff16908060020154908060030154908060040160009054906101000a900473ffffffffffffffffffffffffffffffffffffffff16908060040160149054906101000a900460ff16905086565b60606000610b7e8361110f565b905060008167ffffffffffffffff811115610bc2577f4e487b7100000000000000000000000000000000000000000000000000000000600052604160045260246000fd5b604051908082528060200260200182016040528015610bf05781602001602082028036833780820191505090505b509050600080600190505b6001548111610dcb576000600260008381526020019081526020016000206040518060c0016040529081600082015481526020016001820160009054906101000a900473ffffffffffffffffffffffffffffffffffffffff1673ffffffffffffffffffffffffffffffffffffffff1673ffffffffffffffffffffffffffffffffffffffff16815260200160028201548152602001600382015481526020016004820160009054906101000a900473ffffffffffffffffffffffffffffffffffffffff1673ffffffffffffffffffffffffffffffffffffffff1673ffffffffffffffffffffffffffffffffffffffff1681526020016004820160149054906101000a900460ff16151515158152505090508673ffffffffffffffffffffffffffffffffffffffff16816080015173ffffffffffffffffffffffffffffffffffffffff16148015610d4b57508060a001515b15610da9578060400151848481518110610d8e577f4e487b7100000000000000000000000000000000000000000000000000000000600052603260045260246000fd5b6020026020010181815250508280610da5906119ee565b9350505b82851415610db75750610dcb565b508080610dc3906119ee565b915050610bfb565b50819350505050919050565b60026000541415610e1d576040517f08c379a0000000000000000000000000000000000000000000000000000000008152600401610e149061173a565b60405180910390fd5b600260008190555060008111610e68576040517f08c379a0000000000000000000000000000000000000000000000000000000008152600401610e5f906116ba565b60405180910390fd5b610e7061129f565b60016000815480929190610e83906119ee565b919050555060015481600001818152505083816020019073ffffffffffffffffffffffffffffffffffffffff16908173ffffffffffffffffffffffffffffffffffffffff1681525050828160400181815250508181606001818152505033816080019073ffffffffffffffffffffffffffffffffffffffff16908173ffffffffffffffffffffffffffffffffffffffff168152505060018160a0019015159081151581525050806002600060015481526020019081526020016000206000820151816000015560208201518160010160006101000a81548173ffffffffffffffffffffffffffffffffffffffff021916908373ffffffffffffffffffffffffffffffffffffffff160217905550604082015181600201556060820151816003015560808201518160040160006101000a81548173ffffffffffffffffffffffffffffffffffffffff021916908373ffffffffffffffffffffffffffffffffffffffff16021790555060a08201518160040160146101000a81548160ff02191690831515021790555090505060015460036000858152602001908152602001600020819055508373ffffffffffffffffffffffffffffffffffffffff166323b872dd3330866040518463ffffffff1660e01b81526004016110659392919061160a565b600060405180830381600087803b15801561107f57600080fd5b505af1158015611093573d6000803e3d6000fd5b505050503373ffffffffffffffffffffffffffffffffffffffff168473ffffffffffffffffffffffffffffffffffffffff166001547f8bde039e10cd46aa2b83e1e53a871627945293b7e2ff88de5e1fb983b93aaca786866040516110f99291906117d6565b60405180910390a4506001600081905550505050565b600080600090506000600190505b6001548111611295576000600260008381526020019081526020016000206040518060c0016040529081600082015481526020016001820160009054906101000a900473ffffffffffffffffffffffffffffffffffffffff1673ffffffffffffffffffffffffffffffffffffffff1673ffffffffffffffffffffffffffffffffffffffff16815260200160028201548152602001600382015481526020016004820160009054906101000a900473ffffffffffffffffffffffffffffffffffffffff1673ffffffffffffffffffffffffffffffffffffffff1673ffffffffffffffffffffffffffffffffffffffff1681526020016004820160149054906101000a900460ff16151515158152505090508473ffffffffffffffffffffffffffffffffffffffff16816080015173ffffffffffffffffffffffffffffffffffffffff1614801561126d57508060a001515b1561128157828061127d906119ee565b9350505b50808061128d906119ee565b91505061111d565b5080915050919050565b6040518060c0016040528060008152602001600073ffffffffffffffffffffffffffffffffffffffff1681526020016000815260200160008152602001600073ffffffffffffffffffffffffffffffffffffffff1681526020016000151581525090565b60008135905061131281611b8b565b92915050565b60008135905061132781611ba2565b92915050565b60008135905061133c81611bb9565b92915050565b60006020828403121561135457600080fd5b600061136284828501611303565b91505092915050565b60008060006060848603121561138057600080fd5b600061138e86828701611303565b935050602061139f86828701611303565b92505060406113b08682870161132d565b9150509250925092565b6000806000606084860312156113cf57600080fd5b60006113dd86828701611318565b93505060206113ee8682870161132d565b92505060406113ff8682870161132d565b9150509250925092565b60006020828403121561141b57600080fd5b60006114298482850161132d565b91505092915050565b600061143e83836115b6565b60208301905092915050565b61145381611970565b82525050565b6114628161195e565b82525050565b60006114738261180f565b61147d8185611827565b9350611488836117ff565b8060005b838110156114b95781516114a08882611432565b97506114ab8361181a565b92505060018101905061148c565b5085935050505092915050565b6114cf81611982565b82525050565b6114de816119ca565b82525050565b60006114f1601183611838565b91506114fc82611a95565b602082019050919050565b6000611514601f83611838565b915061151f82611abe565b602082019050919050565b6000611537601483611838565b915061154282611ae7565b602082019050919050565b600061155a601283611838565b915061156582611b10565b602082019050919050565b600061157d600d83611838565b915061158882611b39565b602082019050919050565b60006115a0601f83611838565b91506115ab82611b62565b602082019050919050565b6115bf816119c0565b82525050565b6115ce816119c0565b82525050565b60006020820190506115e96000830184611459565b92915050565b6000602082019050611604600083018461144a565b92915050565b600060608201905061161f6000830186611459565b61162c6020830185611459565b61163960408301846115c5565b949350505050565b60006060820190506116566000830186611459565b61166360208301856115c5565b61167060408301846115c5565b949350505050565b600060208201905081810360008301526116928184611468565b905092915050565b600060208201905081810360008301526116b3816114e4565b9050919050565b600060208201905081810360008301526116d381611507565b9050919050565b600060208201905081810360008301526116f38161152a565b9050919050565b600060208201905081810360008301526117138161154d565b9050919050565b6000602082019050818103600083015261173381611570565b9050919050565b6000602082019050818103600083015261175381611593565b9050919050565b600060208201905061176f60008301846115c5565b92915050565b600060c08201905061178a60008301896115c5565b61179760208301886114d5565b6117a460408301876115c5565b6117b160608301866115c5565b6117be608083018561144a565b6117cb60a08301846114c6565b979650505050505050565b60006040820190506117eb60008301856115c5565b6117f860208301846115c5565b9392505050565b6000819050602082019050919050565b600081519050919050565b6000602082019050919050565b600082825260208201905092915050565b600082825260208201905092915050565b6000611854826119c0565b915061185f836119c0565b9250827fffffffffffffffffffffffffffffffffffffffffffffffffffffffffffffffff0382111561189457611893611a37565b5b828201905092915050565b60006118aa826119c0565b91506118b5836119c0565b9250826118c5576118c4611a66565b5b828204905092915050565b60006118db826119c0565b91506118e6836119c0565b9250817fffffffffffffffffffffffffffffffffffffffffffffffffffffffffffffffff048311821515161561191f5761191e611a37565b5b828202905092915050565b6000611935826119c0565b9150611940836119c0565b92508282101561195357611952611a37565b5b828203905092915050565b6000611969826119a0565b9050919050565b600061197b826119a0565b9050919050565b60008115159050919050565b60006119998261195e565b9050919050565b600073ffffffffffffffffffffffffffffffffffffffff82169050919050565b6000819050919050565b60006119d5826119dc565b9050919050565b60006119e7826119a0565b9050919050565b60006119f9826119c0565b91507fffffffffffffffffffffffffffffffffffffffffffffffffffffffffffffffff821415611a2c57611a2b611a37565b5b600182019050919050565b7f4e487b7100000000000000000000000000000000000000000000000000000000600052601160045260246000fd5b7f4e487b7100000000000000000000000000000000000000000000000000000000600052601260045260246000fd5b7f6974656d20616c726561647920736f6c64000000000000000000000000000000600082015250565b7f5072696365206d7573742062652067726561746572207468616e207a65726f00600082015250565b7f6e6f7420656e6f75676820657468657220627579000000000000000000000000600082015250565b7f6974656d20646f65736e27742065786973740000000000000000000000000000600082015250565b7f4e6f7420746865206f776e657200000000000000000000000000000000000000600082015250565b7f5265656e7472616e637947756172643a207265656e7472616e742063616c6c00600082015250565b611b948161195e565b8114611b9f57600080fd5b50565b611bab8161198e565b8114611bb657600080fd5b50565b611bc2816119c0565b8114611bcd57600080fd5b5056fea2646970667358221220e112ed74571de8dbf7ed1c91a8a2fe94571efbcdfa8b68b5a5c21ac7ffd1868864736f6c63430008040033",
  "linkReferences": {},
  "deployedLinkReferences": {}
}