{
  "_format": "hh-sol-artifact-1",
  "contractName": "NFT",
  "sourceName": "src/contract/contracts/NFT.sol",
  "abi": [
    {
      "inputs": [],
      "stateMutability": "nonpayable",
      "type": "constructor"
    },
    {
      "anonymous": false,
      "inputs": [
        {
          "indexed": true,
          "internalType": "address",
          "name": "owner",
          "type": "address"
        },
        {
          "indexed": true,
          "internalType": "address",
          "name": "approved",
          "type": "address"
        },
        {
          "indexed": true,
          "internalType": "uint256",
          "name": "tokenId",
          "type": "uint256"
        }
      ],
      "name": "Approval",
      "type": "event"
    },
    {
      "anonymous": false,
      "inputs": [
        {
          "indexed": true,
          "internalType": "address",
          "name": "owner",
          "type": "address"
        },
        {
          "indexed": true,
          "internalType": "address",
          "name": "operator",
          "type": "address"
        },
        {
          "indexed": false,
          "internalType": "bool",
          "name": "approved",
          "type": "bool"
        }
      ],
      "name": "ApprovalForAll",
      "type": "event"
    },
    {
      "anonymous": false,
      "inputs": [
        {
          "indexed": true,
          "internalType": "address",
          "name": "to",
          "type": "address"
        },
        {
          "indexed": false,
          "internalType": "string",
          "name": "uri",
          "type": "string"
        },
        {
          "indexed": true,
          "internalType": "uint256",
          "name": "tokenId",
          "type": "uint256"
        }
      ],
      "name": "MintNFT",
      "type": "event"
    },
    {
      "anonymous": false,
      "inputs": [
        {
          "indexed": true,
          "internalType": "address",
          "name": "from",
          "type": "address"
        },
        {
          "indexed": true,
          "internalType": "address",
          "name": "to",
          "type": "address"
        },
        {
          "indexed": true,
          "internalType": "uint256",
          "name": "tokenId",
          "type": "uint256"
        }
      ],
      "name": "Transfer",
      "type": "event"
    },
    {
      "inputs": [
        {
          "internalType": "address",
          "name": "to",
          "type": "address"
        },
        {
          "internalType": "uint256",
          "name": "tokenId",
          "type": "uint256"
        }
      ],
      "name": "approve",
      "outputs": [],
      "stateMutability": "nonpayable",
      "type": "function"
    },
    {
      "inputs": [
        {
          "internalType": "address",
          "name": "owner",
          "type": "address"
        }
      ],
      "name": "balanceOf",
      "outputs": [
        {
          "internalType": "uint256",
          "name": "",
          "type": "uint256"
        }
      ],
      "stateMutability": "view",
      "type": "function"
    },
    {
      "inputs": [
        {
          "internalType": "address",
          "name": "owner",
          "type": "address"
        }
      ],
      "name": "getAllNFTOwned",
      "outputs": [
        {
          "internalType": "uint256[]",
          "name": "",
          "type": "uint256[]"
        }
      ],
      "stateMutability": "view",
      "type": "function"
    },
    {
      "inputs": [
        {
          "internalType": "uint256",
          "name": "tokenId",
          "type": "uint256"
        }
      ],
      "name": "getApproved",
      "outputs": [
        {
          "internalType": "address",
          "name": "",
          "type": "address"
        }
      ],
      "stateMutability": "view",
      "type": "function"
    },
    {
      "inputs": [
        {
          "internalType": "address",
          "name": "owner",
          "type": "address"
        },
        {
          "internalType": "address",
          "name": "operator",
          "type": "address"
        }
      ],
      "name": "isApprovedForAll",
      "outputs": [
        {
          "internalType": "bool",
          "name": "",
          "type": "bool"
        }
      ],
      "stateMutability": "view",
      "type": "function"
    },
    {
      "inputs": [
        {
          "internalType": "string",
          "name": "_tokenURI",
          "type": "string"
        }
      ],
      "name": "mint",
      "outputs": [
        {
          "internalType": "uint256",
          "name": "",
          "type": "uint256"
        }
      ],
      "stateMutability": "nonpayable",
      "type": "function"
    },
    {
      "inputs": [],
      "name": "name",
      "outputs": [
        {
          "internalType": "string",
          "name": "",
          "type": "string"
        }
      ],
      "stateMutability": "view",
      "type": "function"
    },
    {
      "inputs": [
        {
          "internalType": "uint256",
          "name": "tokenId",
          "type": "uint256"
        }
      ],
      "name": "ownerOf",
      "outputs": [
        {
          "internalType": "address",
          "name": "",
          "type": "address"
        }
      ],
      "stateMutability": "view",
      "type": "function"
    },
    {
      "inputs": [
        {
          "internalType": "address",
          "name": "from",
          "type": "address"
        },
        {
          "internalType": "address",
          "name": "to",
          "type": "address"
        },
        {
          "internalType": "uint256",
          "name": "tokenId",
          "type": "uint256"
        }
      ],
      "name": "safeTransferFrom",
      "outputs": [],
      "stateMutability": "nonpayable",
      "type": "function"
    },
    {
      "inputs": [
        {
          "internalType": "address",
          "name": "from",
          "type": "address"
        },
        {
          "internalType": "address",
          "name": "to",
          "type": "address"
        },
        {
          "internalType": "uint256",
          "name": "tokenId",
          "type": "uint256"
        },
        {
          "internalType": "bytes",
          "name": "_data",
          "type": "bytes"
        }
      ],
      "name": "safeTransferFrom",
      "outputs": [],
      "stateMutability": "nonpayable",
      "type": "function"
    },
    {
      "inputs": [
        {
          "internalType": "address",
          "name": "operator",
          "type": "address"
        },
        {
          "internalType": "bool",
          "name": "approved",
          "type": "bool"
        }
      ],
      "name": "setApprovalForAll",
      "outputs": [],
      "stateMutability": "nonpayable",
      "type": "function"
    },
    {
      "inputs": [
        {
          "internalType": "bytes4",
          "name": "interfaceId",
          "type": "bytes4"
        }
      ],
      "name": "supportsInterface",
      "outputs": [
        {
          "internalType": "bool",
          "name": "",
          "type": "bool"
        }
      ],
      "stateMutability": "view",
      "type": "function"
    },
    {
      "inputs": [],
      "name": "symbol",
      "outputs": [
        {
          "internalType": "string",
          "name": "",
          "type": "string"
        }
      ],
      "stateMutability": "view",
      "type": "function"
    },
    {
      "inputs": [],
      "name": "tokenCount",
      "outputs": [
        {
          "internalType": "uint256",
          "name": "",
          "type": "uint256"
        }
      ],
      "stateMutability": "view",
      "type": "function"
    },
    {
      "inputs": [
        {
          "internalType": "uint256",
          "name": "tokenId",
          "type": "uint256"
        }
      ],
      "name": "tokenURI",
      "outputs": [
        {
          "internalType": "string",
          "name": "",
          "type": "string"
        }
      ],
      "stateMutability": "view",
      "type": "function"
    },
    {
      "inputs": [
        {
          "internalType": "address",
          "name": "from",
          "type": "address"
        },
        {
          "internalType": "address",
          "name": "to",
          "type": "address"
        },
        {
          "internalType": "uint256",
          "name": "tokenId",
          "type": "uint256"
        }
      ],
      "name": "transferFrom",
      "outputs": [],
      "stateMutability": "nonpayable",
      "type": "function"
    }
  ],
  "bytecode": "0x60806040523480156200001157600080fd5b506040518060400160405280600881526020017f44417070204e46540000000000000000000000000000000000000000000000008152506040518060400160405280600481526020017f4441505000000000000000000000000000000000000000000000000000000000815250816000908051906020019062000096929190620000b8565b508060019080519060200190620000af929190620000b8565b505050620001cd565b828054620000c69062000168565b90600052602060002090601f016020900481019282620000ea576000855562000136565b82601f106200010557805160ff191683800117855562000136565b8280016001018555821562000136579182015b828111156200013557825182559160200191906001019062000118565b5b50905062000145919062000149565b5090565b5b80821115620001645760008160009055506001016200014a565b5090565b600060028204905060018216806200018157607f821691505b602082108114156200019857620001976200019e565b5b50919050565b7f4e487b7100000000000000000000000000000000000000000000000000000000600052602260045260246000fd5b612ee980620001dd6000396000f3fe608060405234801561001057600080fd5b50600436106101005760003560e01c806395d89b4111610097578063c87b56dd11610066578063c87b56dd146102ab578063d495e220146102db578063d85d3d271461030b578063e985e9c51461033b57610100565b806395d89b41146102375780639f181b5e14610255578063a22cb46514610273578063b88d4fde1461028f57610100565b806323b872dd116100d357806323b872dd1461019f57806342842e0e146101bb5780636352211e146101d757806370a082311461020757610100565b806301ffc9a71461010557806306fdde0314610135578063081812fc14610153578063095ea7b314610183575b600080fd5b61011f600480360381019061011a9190611e75565b61036b565b60405161012c9190612363565b60405180910390f35b61013d61044d565b60405161014a919061237e565b60405180910390f35b61016d60048036038101906101689190611f08565b6104df565b60405161017a91906122da565b60405180910390f35b61019d60048036038101906101989190611e39565b610564565b005b6101b960048036038101906101b49190611d33565b61067c565b005b6101d560048036038101906101d09190611d33565b6106dc565b005b6101f160048036038101906101ec9190611f08565b6106fc565b6040516101fe91906122da565b60405180910390f35b610221600480360381019061021c9190611cce565b6107ae565b60405161022e91906125a0565b60405180910390f35b61023f610866565b60405161024c919061237e565b60405180910390f35b61025d6108f8565b60405161026a91906125a0565b60405180910390f35b61028d60048036038101906102889190611dfd565b6108fe565b005b6102a960048036038101906102a49190611d82565b610914565b005b6102c560048036038101906102c09190611f08565b610976565b6040516102d2919061237e565b60405180910390f35b6102f560048036038101906102f09190611cce565b610ac8565b6040516103029190612341565b60405180910390f35b61032560048036038101906103209190611ec7565b610c2c565b60405161033291906125a0565b60405180910390f35b61035560048036038101906103509190611cf7565b610cc3565b6040516103629190612363565b60405180910390f35b60007f80ac58cd000000000000000000000000000000000000000000000000000000007bffffffffffffffffffffffffffffffffffffffffffffffffffffffff1916827bffffffffffffffffffffffffffffffffffffffffffffffffffffffff1916148061043657507f5b5e139f000000000000000000000000000000000000000000000000000000007bffffffffffffffffffffffffffffffffffffffffffffffffffffffff1916827bffffffffffffffffffffffffffffffffffffffffffffffffffffffff1916145b80610446575061044582610d57565b5b9050919050565b60606000805461045c9061282f565b80601f01602080910402602001604051908101604052809291908181526020018280546104889061282f565b80156104d55780601f106104aa576101008083540402835291602001916104d5565b820191906000526020600020905b8154815290600101906020018083116104b857829003601f168201915b5050505050905090565b60006104ea82610dc1565b610529576040517f08c379a000000000000000000000000000000000000000000000000000000000815260040161052090612520565b60405180910390fd5b6004600083815260200190815260200160002060009054906101000a900473ffffffffffffffffffffffffffffffffffffffff169050919050565b600061056f826106fc565b90508073ffffffffffffffffffffffffffffffffffffffff168373ffffffffffffffffffffffffffffffffffffffff1614156105e0576040517f08c379a00000000000000000000000000000000000000000000000000000000081526004016105d790612560565b60405180910390fd5b8073ffffffffffffffffffffffffffffffffffffffff166105ff610e2d565b73ffffffffffffffffffffffffffffffffffffffff16148061062e575061062d81610628610e2d565b610cc3565b5b61066d576040517f08c379a000000000000000000000000000000000000000000000000000000000815260040161066490612460565b60405180910390fd5b6106778383610e35565b505050565b61068d610687610e2d565b82610eee565b6106cc576040517f08c379a00000000000000000000000000000000000000000000000000000000081526004016106c390612580565b60405180910390fd5b6106d7838383610fcc565b505050565b6106f783838360405180602001604052806000815250610914565b505050565b6000806002600084815260200190815260200160002060009054906101000a900473ffffffffffffffffffffffffffffffffffffffff169050600073ffffffffffffffffffffffffffffffffffffffff168173ffffffffffffffffffffffffffffffffffffffff1614156107a5576040517f08c379a000000000000000000000000000000000000000000000000000000000815260040161079c906124a0565b60405180910390fd5b80915050919050565b60008073ffffffffffffffffffffffffffffffffffffffff168273ffffffffffffffffffffffffffffffffffffffff16141561081f576040517f08c379a000000000000000000000000000000000000000000000000000000000815260040161081690612480565b60405180910390fd5b600360008373ffffffffffffffffffffffffffffffffffffffff1673ffffffffffffffffffffffffffffffffffffffff168152602001908152602001600020549050919050565b6060600180546108759061282f565b80601f01602080910402602001604051908101604052809291908181526020018280546108a19061282f565b80156108ee5780601f106108c3576101008083540402835291602001916108ee565b820191906000526020600020905b8154815290600101906020018083116108d157829003601f168201915b5050505050905090565b60075481565b610910610909610e2d565b8383611233565b5050565b61092561091f610e2d565b83610eee565b610964576040517f08c379a000000000000000000000000000000000000000000000000000000000815260040161095b90612580565b60405180910390fd5b610970848484846113a0565b50505050565b606061098182610dc1565b6109c0576040517f08c379a00000000000000000000000000000000000000000000000000000000081526004016109b790612500565b60405180910390fd5b60006006600084815260200190815260200160002080546109e09061282f565b80601f0160208091040260200160405190810160405280929190818152602001828054610a0c9061282f565b8015610a595780601f10610a2e57610100808354040283529160200191610a59565b820191906000526020600020905b815481529060010190602001808311610a3c57829003601f168201915b505050505090506000610a6a6113fc565b9050600081511415610a80578192505050610ac3565b600082511115610ab5578082604051602001610a9d9291906122b6565b60405160208183030381529060405292505050610ac3565b610abe84611413565b925050505b919050565b60606000610ad5836107ae565b905060008167ffffffffffffffff811115610b19577f4e487b7100000000000000000000000000000000000000000000000000000000600052604160045260246000fd5b604051908082528060200260200182016040528015610b475781602001602082028036833780820191505090505b5090506000821415610b5d578092505050610c27565b600080600190505b6007548111610c1f578573ffffffffffffffffffffffffffffffffffffffff16610b8e826106fc565b73ffffffffffffffffffffffffffffffffffffffff161415610bff5780838381518110610be4577f4e487b7100000000000000000000000000000000000000000000000000000000600052603260045260246000fd5b6020026020010181815250508180610bfb90612892565b9250505b81841415610c0c57610c1f565b8080610c1790612892565b915050610b65565b508193505050505b919050565b600060076000815480929190610c4190612892565b9190505550610c52336007546114ba565b610c5e600754836114d8565b6007543373ffffffffffffffffffffffffffffffffffffffff167f28c48897c00eeaf23cf918f3d080d78bafea4bf929e963d04d1683db110de350610ca4600754610976565b604051610cb1919061237e565b60405180910390a36007549050919050565b6000600560008473ffffffffffffffffffffffffffffffffffffffff1673ffffffffffffffffffffffffffffffffffffffff16815260200190815260200160002060008373ffffffffffffffffffffffffffffffffffffffff1673ffffffffffffffffffffffffffffffffffffffff16815260200190815260200160002060009054906101000a900460ff16905092915050565b60007f01ffc9a7000000000000000000000000000000000000000000000000000000007bffffffffffffffffffffffffffffffffffffffffffffffffffffffff1916827bffffffffffffffffffffffffffffffffffffffffffffffffffffffff1916149050919050565b60008073ffffffffffffffffffffffffffffffffffffffff166002600084815260200190815260200160002060009054906101000a900473ffffffffffffffffffffffffffffffffffffffff1673ffffffffffffffffffffffffffffffffffffffff1614159050919050565b600033905090565b816004600083815260200190815260200160002060006101000a81548173ffffffffffffffffffffffffffffffffffffffff021916908373ffffffffffffffffffffffffffffffffffffffff160217905550808273ffffffffffffffffffffffffffffffffffffffff16610ea8836106fc565b73ffffffffffffffffffffffffffffffffffffffff167f8c5be1e5ebec7d5bd14f71427d1e84f3dd0314c0f7b2291e5b200ac8c7c3b92560405160405180910390a45050565b6000610ef982610dc1565b610f38576040517f08c379a0000000000000000000000000000000000000000000000000000000008152600401610f2f90612440565b60405180910390fd5b6000610f43836106fc565b90508073ffffffffffffffffffffffffffffffffffffffff168473ffffffffffffffffffffffffffffffffffffffff161480610fb257508373ffffffffffffffffffffffffffffffffffffffff16610f9a846104df565b73ffffffffffffffffffffffffffffffffffffffff16145b80610fc35750610fc28185610cc3565b5b91505092915050565b8273ffffffffffffffffffffffffffffffffffffffff16610fec826106fc565b73ffffffffffffffffffffffffffffffffffffffff1614611042576040517f08c379a0000000000000000000000000000000000000000000000000000000008152600401611039906123c0565b60405180910390fd5b600073ffffffffffffffffffffffffffffffffffffffff168273ffffffffffffffffffffffffffffffffffffffff1614156110b2576040517f08c379a00000000000000000000000000000000000000000000000000000000081526004016110a990612400565b60405180910390fd5b6110bd83838361154c565b6110c8600082610e35565b6001600360008573ffffffffffffffffffffffffffffffffffffffff1673ffffffffffffffffffffffffffffffffffffffff16815260200190815260200160002060008282546111189190612745565b925050819055506001600360008473ffffffffffffffffffffffffffffffffffffffff1673ffffffffffffffffffffffffffffffffffffffff168152602001908152602001600020600082825461116f91906126be565b92505081905550816002600083815260200190815260200160002060006101000a81548173ffffffffffffffffffffffffffffffffffffffff021916908373ffffffffffffffffffffffffffffffffffffffff160217905550808273ffffffffffffffffffffffffffffffffffffffff168473ffffffffffffffffffffffffffffffffffffffff167fddf252ad1be2c89b69c2b068fc378daa952ba7f163c4a11628f55a4df523b3ef60405160405180910390a461122e838383611551565b505050565b8173ffffffffffffffffffffffffffffffffffffffff168373ffffffffffffffffffffffffffffffffffffffff1614156112a2576040517f08c379a000000000000000000000000000000000000000000000000000000000815260040161129990612420565b60405180910390fd5b80600560008573ffffffffffffffffffffffffffffffffffffffff1673ffffffffffffffffffffffffffffffffffffffff16815260200190815260200160002060008473ffffffffffffffffffffffffffffffffffffffff1673ffffffffffffffffffffffffffffffffffffffff16815260200190815260200160002060006101000a81548160ff0219169083151502179055508173ffffffffffffffffffffffffffffffffffffffff168373ffffffffffffffffffffffffffffffffffffffff167f17307eab39ab6107e8899845ad3d59bd9653f200f220920489ca2b5937696c31836040516113939190612363565b60405180910390a3505050565b6113ab848484610fcc565b6113b784848484611556565b6113f6576040517f08c379a00000000000000000000000000000000000000000000000000000000081526004016113ed906123a0565b60405180910390fd5b50505050565b606060405180602001604052806000815250905090565b606061141e82610dc1565b61145d576040517f08c379a000000000000000000000000000000000000000000000000000000000815260040161145490612540565b60405180910390fd5b60006114676113fc565b9050600081511161148757604051806020016040528060008152506114b2565b80611491846116ed565b6040516020016114a29291906122b6565b6040516020818303038152906040525b915050919050565b6114d482826040518060200160405280600081525061189a565b5050565b6114e182610dc1565b611520576040517f08c379a0000000000000000000000000000000000000000000000000000000008152600401611517906124c0565b60405180910390fd5b80600660008481526020019081526020016000209080519060200190611547929190611af2565b505050565b505050565b505050565b60006115778473ffffffffffffffffffffffffffffffffffffffff166118f5565b156116e0578373ffffffffffffffffffffffffffffffffffffffff1663150b7a026115a0610e2d565b8786866040518563ffffffff1660e01b81526004016115c294939291906122f5565b602060405180830381600087803b1580156115dc57600080fd5b505af192505050801561160d57506040513d601f19601f8201168201806040525081019061160a9190611e9e565b60015b611690573d806000811461163d576040519150601f19603f3d011682016040523d82523d6000602084013e611642565b606091505b50600081511415611688576040517f08c379a000000000000000000000000000000000000000000000000000000000815260040161167f906123a0565b60405180910390fd5b805181602001fd5b63150b7a0260e01b7bffffffffffffffffffffffffffffffffffffffffffffffffffffffff1916817bffffffffffffffffffffffffffffffffffffffffffffffffffffffff1916149150506116e5565b600190505b949350505050565b60606000821415611735576040518060400160405280600181526020017f30000000000000000000000000000000000000000000000000000000000000008152509050611895565b600082905060005b6000821461176757808061175090612892565b915050600a826117609190612714565b915061173d565b60008167ffffffffffffffff8111156117a9577f4e487b7100000000000000000000000000000000000000000000000000000000600052604160045260246000fd5b6040519080825280601f01601f1916602001820160405280156117db5781602001600182028036833780820191505090505b5090505b6000851461188e576001826117f49190612745565b9150600a8561180391906128db565b603061180f91906126be565b60f81b81838151811061184b577f4e487b7100000000000000000000000000000000000000000000000000000000600052603260045260246000fd5b60200101907effffffffffffffffffffffffffffffffffffffffffffffffffffffffffffff1916908160001a905350600a856118879190612714565b94506117df565b8093505050505b919050565b6118a48383611918565b6118b16000848484611556565b6118f0576040517f08c379a00000000000000000000000000000000000000000000000000000000081526004016118e7906123a0565b60405180910390fd5b505050565b6000808273ffffffffffffffffffffffffffffffffffffffff163b119050919050565b600073ffffffffffffffffffffffffffffffffffffffff168273ffffffffffffffffffffffffffffffffffffffff161415611988576040517f08c379a000000000000000000000000000000000000000000000000000000000815260040161197f906124e0565b60405180910390fd5b61199181610dc1565b156119d1576040517f08c379a00000000000000000000000000000000000000000000000000000000081526004016119c8906123e0565b60405180910390fd5b6119dd6000838361154c565b6001600360008473ffffffffffffffffffffffffffffffffffffffff1673ffffffffffffffffffffffffffffffffffffffff1681526020019081526020016000206000828254611a2d91906126be565b92505081905550816002600083815260200190815260200160002060006101000a81548173ffffffffffffffffffffffffffffffffffffffff021916908373ffffffffffffffffffffffffffffffffffffffff160217905550808273ffffffffffffffffffffffffffffffffffffffff16600073ffffffffffffffffffffffffffffffffffffffff167fddf252ad1be2c89b69c2b068fc378daa952ba7f163c4a11628f55a4df523b3ef60405160405180910390a4611aee60008383611551565b5050565b828054611afe9061282f565b90600052602060002090601f016020900481019282611b205760008555611b67565b82601f10611b3957805160ff1916838001178555611b67565b82800160010185558215611b67579182015b82811115611b66578251825591602001919060010190611b4b565b5b509050611b749190611b78565b5090565b5b80821115611b91576000816000905550600101611b79565b5090565b6000611ba8611ba3846125e0565b6125bb565b905082815260208101848484011115611bc057600080fd5b611bcb8482856127ed565b509392505050565b6000611be6611be184612611565b6125bb565b905082815260208101848484011115611bfe57600080fd5b611c098482856127ed565b509392505050565b600081359050611c2081612e57565b92915050565b600081359050611c3581612e6e565b92915050565b600081359050611c4a81612e85565b92915050565b600081519050611c5f81612e85565b92915050565b600082601f830112611c7657600080fd5b8135611c86848260208601611b95565b91505092915050565b600082601f830112611ca057600080fd5b8135611cb0848260208601611bd3565b91505092915050565b600081359050611cc881612e9c565b92915050565b600060208284031215611ce057600080fd5b6000611cee84828501611c11565b91505092915050565b60008060408385031215611d0a57600080fd5b6000611d1885828601611c11565b9250506020611d2985828601611c11565b9150509250929050565b600080600060608486031215611d4857600080fd5b6000611d5686828701611c11565b9350506020611d6786828701611c11565b9250506040611d7886828701611cb9565b9150509250925092565b60008060008060808587031215611d9857600080fd5b6000611da687828801611c11565b9450506020611db787828801611c11565b9350506040611dc887828801611cb9565b925050606085013567ffffffffffffffff811115611de557600080fd5b611df187828801611c65565b91505092959194509250565b60008060408385031215611e1057600080fd5b6000611e1e85828601611c11565b9250506020611e2f85828601611c26565b9150509250929050565b60008060408385031215611e4c57600080fd5b6000611e5a85828601611c11565b9250506020611e6b85828601611cb9565b9150509250929050565b600060208284031215611e8757600080fd5b6000611e9584828501611c3b565b91505092915050565b600060208284031215611eb057600080fd5b6000611ebe84828501611c50565b91505092915050565b600060208284031215611ed957600080fd5b600082013567ffffffffffffffff811115611ef357600080fd5b611eff84828501611c8f565b91505092915050565b600060208284031215611f1a57600080fd5b6000611f2884828501611cb9565b91505092915050565b6000611f3d8383612298565b60208301905092915050565b611f5281612779565b82525050565b6000611f6382612652565b611f6d8185612680565b9350611f7883612642565b8060005b83811015611fa9578151611f908882611f31565b9750611f9b83612673565b925050600181019050611f7c565b5085935050505092915050565b611fbf8161278b565b82525050565b6000611fd08261265d565b611fda8185612691565b9350611fea8185602086016127fc565b611ff3816129c8565b840191505092915050565b600061200982612668565b61201381856126a2565b93506120238185602086016127fc565b61202c816129c8565b840191505092915050565b600061204282612668565b61204c81856126b3565b935061205c8185602086016127fc565b80840191505092915050565b60006120756032836126a2565b9150612080826129d9565b604082019050919050565b60006120986025836126a2565b91506120a382612a28565b604082019050919050565b60006120bb601c836126a2565b91506120c682612a77565b602082019050919050565b60006120de6024836126a2565b91506120e982612aa0565b604082019050919050565b60006121016019836126a2565b915061210c82612aef565b602082019050919050565b6000612124602c836126a2565b915061212f82612b18565b604082019050919050565b60006121476038836126a2565b915061215282612b67565b604082019050919050565b600061216a602a836126a2565b915061217582612bb6565b604082019050919050565b600061218d6029836126a2565b915061219882612c05565b604082019050919050565b60006121b0602e836126a2565b91506121bb82612c54565b604082019050919050565b60006121d36020836126a2565b91506121de82612ca3565b602082019050919050565b60006121f66031836126a2565b915061220182612ccc565b604082019050919050565b6000612219602c836126a2565b915061222482612d1b565b604082019050919050565b600061223c602f836126a2565b915061224782612d6a565b604082019050919050565b600061225f6021836126a2565b915061226a82612db9565b604082019050919050565b60006122826031836126a2565b915061228d82612e08565b604082019050919050565b6122a1816127e3565b82525050565b6122b0816127e3565b82525050565b60006122c28285612037565b91506122ce8284612037565b91508190509392505050565b60006020820190506122ef6000830184611f49565b92915050565b600060808201905061230a6000830187611f49565b6123176020830186611f49565b61232460408301856122a7565b81810360608301526123368184611fc5565b905095945050505050565b6000602082019050818103600083015261235b8184611f58565b905092915050565b60006020820190506123786000830184611fb6565b92915050565b600060208201905081810360008301526123988184611ffe565b905092915050565b600060208201905081810360008301526123b981612068565b9050919050565b600060208201905081810360008301526123d98161208b565b9050919050565b600060208201905081810360008301526123f9816120ae565b9050919050565b60006020820190508181036000830152612419816120d1565b9050919050565b60006020820190508181036000830152612439816120f4565b9050919050565b6000602082019050818103600083015261245981612117565b9050919050565b600060208201905081810360008301526124798161213a565b9050919050565b600060208201905081810360008301526124998161215d565b9050919050565b600060208201905081810360008301526124b981612180565b9050919050565b600060208201905081810360008301526124d9816121a3565b9050919050565b600060208201905081810360008301526124f9816121c6565b9050919050565b60006020820190508181036000830152612519816121e9565b9050919050565b600060208201905081810360008301526125398161220c565b9050919050565b600060208201905081810360008301526125598161222f565b9050919050565b6000602082019050818103600083015261257981612252565b9050919050565b6000602082019050818103600083015261259981612275565b9050919050565b60006020820190506125b560008301846122a7565b92915050565b60006125c56125d6565b90506125d18282612861565b919050565b6000604051905090565b600067ffffffffffffffff8211156125fb576125fa612999565b5b612604826129c8565b9050602081019050919050565b600067ffffffffffffffff82111561262c5761262b612999565b5b612635826129c8565b9050602081019050919050565b6000819050602082019050919050565b600081519050919050565b600081519050919050565b600081519050919050565b6000602082019050919050565b600082825260208201905092915050565b600082825260208201905092915050565b600082825260208201905092915050565b600081905092915050565b60006126c9826127e3565b91506126d4836127e3565b9250827fffffffffffffffffffffffffffffffffffffffffffffffffffffffffffffffff038211156127095761270861290c565b5b828201905092915050565b600061271f826127e3565b915061272a836127e3565b92508261273a5761273961293b565b5b828204905092915050565b6000612750826127e3565b915061275b836127e3565b92508282101561276e5761276d61290c565b5b828203905092915050565b6000612784826127c3565b9050919050565b60008115159050919050565b60007fffffffff0000000000000000000000000000000000000000000000000000000082169050919050565b600073ffffffffffffffffffffffffffffffffffffffff82169050919050565b6000819050919050565b82818337600083830152505050565b60005b8381101561281a5780820151818401526020810190506127ff565b83811115612829576000848401525b50505050565b6000600282049050600182168061284757607f821691505b6020821081141561285b5761285a61296a565b5b50919050565b61286a826129c8565b810181811067ffffffffffffffff8211171561288957612888612999565b5b80604052505050565b600061289d826127e3565b91507fffffffffffffffffffffffffffffffffffffffffffffffffffffffffffffffff8214156128d0576128cf61290c565b5b600182019050919050565b60006128e6826127e3565b91506128f1836127e3565b9250826129015761290061293b565b5b828206905092915050565b7f4e487b7100000000000000000000000000000000000000000000000000000000600052601160045260246000fd5b7f4e487b7100000000000000000000000000000000000000000000000000000000600052601260045260246000fd5b7f4e487b7100000000000000000000000000000000000000000000000000000000600052602260045260246000fd5b7f4e487b7100000000000000000000000000000000000000000000000000000000600052604160045260246000fd5b6000601f19601f8301169050919050565b7f4552433732313a207472616e7366657220746f206e6f6e20455243373231526560008201527f63656976657220696d706c656d656e7465720000000000000000000000000000602082015250565b7f4552433732313a207472616e736665722066726f6d20696e636f72726563742060008201527f6f776e6572000000000000000000000000000000000000000000000000000000602082015250565b7f4552433732313a20746f6b656e20616c7265616479206d696e74656400000000600082015250565b7f4552433732313a207472616e7366657220746f20746865207a65726f2061646460008201527f7265737300000000000000000000000000000000000000000000000000000000602082015250565b7f4552433732313a20617070726f766520746f2063616c6c657200000000000000600082015250565b7f4552433732313a206f70657261746f7220717565727920666f72206e6f6e657860008201527f697374656e7420746f6b656e0000000000000000000000000000000000000000602082015250565b7f4552433732313a20617070726f76652063616c6c6572206973206e6f74206f7760008201527f6e6572206e6f7220617070726f76656420666f7220616c6c0000000000000000602082015250565b7f4552433732313a2062616c616e636520717565727920666f7220746865207a6560008201527f726f206164647265737300000000000000000000000000000000000000000000602082015250565b7f4552433732313a206f776e657220717565727920666f72206e6f6e657869737460008201527f656e7420746f6b656e0000000000000000000000000000000000000000000000602082015250565b7f45524337323155524953746f726167653a2055524920736574206f66206e6f6e60008201527f6578697374656e7420746f6b656e000000000000000000000000000000000000602082015250565b7f4552433732313a206d696e7420746f20746865207a65726f2061646472657373600082015250565b7f45524337323155524953746f726167653a2055524920717565727920666f722060008201527f6e6f6e6578697374656e7420746f6b656e000000000000000000000000000000602082015250565b7f4552433732313a20617070726f76656420717565727920666f72206e6f6e657860008201527f697374656e7420746f6b656e0000000000000000000000000000000000000000602082015250565b7f4552433732314d657461646174613a2055524920717565727920666f72206e6f60008201527f6e6578697374656e7420746f6b656e0000000000000000000000000000000000602082015250565b7f4552433732313a20617070726f76616c20746f2063757272656e74206f776e6560008201527f7200000000000000000000000000000000000000000000000000000000000000602082015250565b7f4552433732313a207472616e736665722063616c6c6572206973206e6f74206f60008201527f776e6572206e6f7220617070726f766564000000000000000000000000000000602082015250565b612e6081612779565b8114612e6b57600080fd5b50565b612e778161278b565b8114612e8257600080fd5b50565b612e8e81612797565b8114612e9957600080fd5b50565b612ea5816127e3565b8114612eb057600080fd5b5056fea264697066735822122010403219a98ce85cd44222827a594e1c218ad908ac792ed492bc2f7a00ce4d2b64736f6c63430008040033",
  "linkReferences": {},
  "deployedLinkReferences": {}
}